:020000040800F2
:10000000E8090020010100089313000829100008E6
:1000100091130008A9010008611800080000000001
:10002000000000000000000000000000AF16000803
:10003000AB01000800000000AD160008B116000872
:100040001B0100081B0100081B0100081B01000820
:100050001B0100081B0100081B0100081B01000810
:100060001B0100081B0100081B0100081B01000800
:100070001B0100081B0100081B0100081B010008F0
:100080001B0100081B0100081B0100081B010008E0
:100090001B0100081B0100081B0100081B010008D0
:1000A0001B0100081B0100081B0100081B010008C0
:1000B0001B0100081B0100081D1700081B01000898
:1000C0001B0100081B0100081B0100081B010008A0
:1000D0001B0100081B0100081B0100081B01000890
:1000E0001B0100081B0100081B010008DFF80CD0F1
:1000F00000F02AF800480047B11A0008E80900207B
:100100000648804706480047FEE7FEE7FEE7FEE7B1
:10011000FEE7FEE7FEE7FEE7FEE7FEE71B17000847
:10012000ED000008D2B201E000F8012B491EFBD21D
:1001300070470022F6E710B513460A4604461946F2
:10014000FFF7F0FF204610BD064C074D06E0E068C3
:1001500040F0010394E8070098471034AC42F6D30E
:10016000FFF7C8FF34240008542400080D4802217A
:1001700001707047704700000A4803210170704702
:1001800080484FF40051002200F003B9704700008E
:100190007C484FF40051012200F0FBB801480121D6
:1001A0000170704748010020FEE77047EFF31080B0
:1001B00072B6FEE7B0B5044600F0F0F80546054813
:1001C000611C007818BF044400F0E8F8401BA0420E
:1001D000FAD3B0BD000000202DE9FC4F5F4A042394
:1001E0004FF0000B4FF0010C4FF00009904208BF98
:1001F0000323009300250C6834FA05F208BFBDE81C
:10020000FC8F0CFA05F814EA080F00F0A2804F6882
:10021000032F16D9112F26D0122F28D0524A9742D9
:1002200013D0524A974210D0514A97420DD0514AAA
:1002300097420AD0504A974207D0504A974204D07A
:1002400022E0DFE807F002181B1F8C6844B1012C84
:1002500014BFC0F81480C0F810804FF0080913E0F4
:100260004FF0040910E0CC6804F104090CE0CC68FC
:1002700004F10C0908E0D1F80C9005E0CC6804F119
:10028000080901E04FF000095C460746082D4FF0D1
:100290000F0228BF203C28BF04373B6802FA04F64F
:1002A00009FA04F4B34323433B60CB79DB0650D512
:1002B000F44A4FEA950E136843F001031360136884
:1002C0002F4A03F0010390420193019B244BA3F5B5
:1002D0007E7454F82EA008D0EB4A904207D0294AE9
:1002E000009E904208BF022602E0002600E00126A0
:1002F0000BF00C030F2202FA03FC06FA03F3184E6C
:10030000184A2AEA0C074FF0010C3B4344F82E3000
:100310004F68FB02B36854BF23EA080443EA0804A9
:10032000B460BB02136854BF23EA080443EA08041C
:100330001460BB03736854BF23EA080443EA08044B
:100340007460FB03336854BF23EA080243EA0802DF
:1003500032600BF1040B01354DE700BF0014014082
:10036000000401400C0401400000111000001210B4
:100370000000211000002210000031100000321097
:1003800000080140001001408068084018BF0120AB
:100390007047002A08BF090401617047C04800681F
:1003A000704700BFF8B528B3044690F83D0020B967
:1003B00001F06EF9204600F035F901F033F90168DB
:1003C00041F400410160016821F40041016000F046
:1003D0008DFA3B4900253B4A88424FF0000138BF67
:1003E0000121904238BF01256368374A934238BFE4
:1003F0000D460DB10120F8BD34494FF47A77B0FBBA
:10040000F1F521684E6826F03F062E434E604FF40A
:1004100096766E43934228BFB6FBF7F56A1C0D6AC9
:1004200025F03F052A434CF6FF750A62CA69AA43C4
:10043000274DAB420AD85B000138B0FBF3F0013026
:100440006FF31F30042898BF042013E0A56801381B
:100450003DB119256B4301F008F90AD000F5804041
:1004600004E003EB430301F000F902D000F5004083
:1004700000E00120104304F10C06C861E0690A683D
:1004800022F0C0021043226A104348F2FF32086093
:10049000886890436CCE184310438860C86820F089
:1004A000FF0028433043C86001F07EF8002020217F
:1004B000206484F83D10206384F83E00F8BD00BF3E
:1004C00080841E0000093D00A186010040420F000B
:1004D000A08601002DE9FC471F46164689460446C2
:1004E000FFF75CFF824600F0EFFF0DD14C4D204638
:1004F00001221923CDF800A005F5702100F0CDFDF3
:1005000010B900F0D5FF02D10220BDE8FC8700F051
:10051000C4FF01D101F033F80168A5F10212DDF842
:10052000288021F400610160212101F084F86785B1
:10053000618DE26266622185E16A11F5803F18BF34
:10054000012919D100F0EFFF20464FF001110022E0
:100550004346CDF800A000F0A0FD38B12068006847
:10056000C00544BF4FF40070206421E02069B0F55D
:10057000804F07D1FE2013E00829E3D0216B122918
:10058000E0D0E1E7062021684246534600EAD91050
:10059000F0300861A91D204600F0AFFD40B9FF20F2
:1005A000216800EA09004246534601F065F810B19F
:1005B0000120BDE8FC870020019001F062F8208D49
:1005C00028B320464146524600F0C7FDC0B900F0AE
:1005D000CBFF228D531E23854E69760709D51B0458
:1005E00007D0437802300B616062901E208500F0D6
:1005F000B4FF20464146524600F02FFD0028DED0D1
:10060000206C0428D4D1206801F04BF8D0E7206892
:10061000016841F40071016000F02CFFBDE8FC8727
:100620000200010010B586B0002100680491144951
:10063000884222D1404C206840F0080020602068A9
:1006400000F00800019003200590122003904FF461
:1006500040700290019802A90B48FFF7BDFD374892
:100660000A4A016811430160606840F4001060604C
:10067000606800F400100190019806B010BD00BF42
:100680000054004018100240000C01400200000716
:100690001A48034900780A6810440860704700BF90
:1006A000E405002080B58E48016841F0100101602A
:1006B000032000F06DF80F2000F004F800F020F89F
:1006C000002080BD70B50D4E04464FF47A7130782D
:1006D000B1FBF0F08F490968B1FBF0F000F0C6FA09
:1006E00001250F2C08D838B94FF0FF3021460022E1
:1006F000002500F031F87460284670BD000000202D
:1007000082B00D480222016841F0010101600168D8
:1007100001F0010101910199416841F0805141606E
:10072000406800F08050009000980448016862F32F
:100730001A61016002B070471810024004000140C5
:10074000002806D4734600F077FE9E46014A42F820
:100750002010704700E100E070B5134B4FF0FF35FB
:100760001B68C3F30223DC1E83F0070338BF002499
:1007700005FA04F6B243042B28BF042305FA03F359
:100780009943A1401143BDE8704001F06BB800BF30
:1007900005494FF6FF030A681A4060F30A2203482E
:1007A00010430860704700BF0CED00E00000FA0540
:1007B0002DE9F84300286CD088464949044608686A
:1007C00000F0070040450AD2086820F0070040EA20
:1007D00008000860086800F00700404559D120680B
:1007E0005B4B8946810711D5410703D5196841F450
:1007F000E0611960010703D5196841F4605119607F
:10080000A1681A6822F0F00211431960C00737D1BD
:10081000D9F8000000F0070040450DD9D9F80000D4
:1008200020F0070040EA0800C9F80000D9F80000ED
:1008300000F0070040452CD12068410705D5E1684C
:100840001A6822F4E06211431960000706D5206996
:10085000196821F4605141EAC00018601C4600F09C
:100860005DF821681F4AC1F30311515CC840294952
:1008700008601D480068FFF725FF0020BDE8F883E9
:100880006068022808D0012825D153F8041C890388
:1008900006D40120BDE8F88353F8041C8901F8D57B
:1008A00019681D4621F0030108431860FFF776FD23
:1008B000064641F28837606829682B4601F00C0132
:1008C000B1EB800FA4D0FFF769FD801BB842F2D9CD
:1008D0000320BDE8F88353F8041C8907D9D5DFE766
:1008E00000200240A823000804000020DD48184929
:1008F000094A00680968C1F30221515CC840704789
:10090000D8481349044A00680968C1F3C221515C00
:10091000C840704708000020B823000810B50C49F3
:100920000C480A6802F00C03082B07D1C2F383437A
:1009300009A4D203E35C02D40C48584310BD0968F3
:1009400009A25843C1F34041515CB0FBF1F010BD26
:100950000410024000127A00020304050607080989
:100960000A0B0C0D0E0F10100102000000093D00D3
:100970002DE9FC41002800F09C8004460078B74E29
:10098000C0071FD0706800F00C00042814D000F0DD
:1009900096FD02D17068C0030ED46068002800F094
:1009A0001481B0F5A02F00F02181B0F5803F00F058
:1009B000218100F020FD20E13068800302D56068CD
:1009C000002876D02078800716D5706810F00C0FBC
:1009D00005D000F074FD24D17068C00321D43068C4
:1009E000800702D52069012863D16069316821F050
:1009F000F80141EAC00030602078000741D5A069C5
:100A000010B397480121C0F88014FFF7C7FC0546D2
:100A1000706A800728D4FFF7C1FC401B0228F7D971
:100A2000F8E021698E48002900F08E8001210160E4
:100A3000FFF7B4FC054630688007D6D4FFF7AEFC5C
:100A4000401B0228F7D9E5E085480021C0F8801452
:100A5000FFF7A4FC0546706A800712D5FFF79EFCDD
:100A6000401B0228F7D9D5E07E484FF4FA510068C0
:100A7000B0FBF1F0019000BF0198411E00280191E8
:100A8000F9D12078400717D4E7697FB100F017FD4E
:100A90003CD1012F0DD0216A706800F480328A4267
:100AA00007D1616A00F47010884202D10020BDE8CD
:100AB000FC810120BDE8FC81F06910F0805808D16C
:100AC000F06940F08050F061F06900F080500090D3
:100AD0000098654F3868C0050FD4386840F48070BE
:100AE0003860FFF75BFC05463868C00505D4FFF7A2
:100AF00055FC401B6428F7D98CE0E068A0B30528BA
:100B000044D0012846D000F08FFC46E05449002034
:100B100088460866FFF742FC0546022F0AD1474681
:100B20003068800179D5FFF739FC411B0320022989
:100B3000F6D9BCE730688001B8D5FFF72FFC411B20
:100B400003200229F6D9B2E700210160FFF726FC55
:100B50000546306880077FF54FAFFFF71FFC411B4C
:100B600003200229F5D9A2E700F05EFC3062FFF70E
:100B700015FC054641F28837306A80071CD5FFF71F
:100B80000DFC411B0320B942F6D990E7306A40F0D2
:100B900004003062306A40F001003062FFF7FEFB73
:100BA000054641F28837306A800705D4FFF7F6FB27
:100BB000401BB842F7D92DE0B8F1000F7FF464AFC5
:100BC000F06920F08050F0615EE700F014FC3060C6
:100BD000FFF7E4FB0546306880037FF5F3AEFFF7CF
:100BE000DDFB411B03206429F5D960E7306840F440
:100BF00080203060306840F480303060FFF7CEFBFA
:100C00000546306880033FF5DDAEFFF7C7FB401BAC
:100C10006428F6D90320BDE8FC81206AB0F5803F46
:100C200005D1A168726822F4003211437160616AD3
:100C30000843716821F4741108437060012038661C
:100C4000FFF7ACFB0446306880013FF52FAFFFF79C
:100C5000A5FB011B03200229F5D928E7001002405B
:100C6000000042420800002000700040411E0020A9
:100C7000B0EB116F1CBF01207047044AF023516094
:100C800003490B70072190601160704710E000E08D
:100C900023ED00E07047704710B590F83C30022219
:100CA000012B20D080F83D2002680B68546824F0A6
:100CB00070041C439368B2F1804F546008D0344CE8
:100CC000A24205D0334CA24202D0AF4CA24204D182
:100CD000496823F08003194391600022012180F8C4
:100CE0003C2080F83D10104610BD00BF58B110B533
:100CF00000F050FC03D100F0F8FB00F007F800F022
:100D0000A2FC00F0A0BB012070470000E0B5006825
:100D10009D49884218BF8CBD09480022016841F0F6
:100D2000040101600021006800F0040001900198B6
:100D30001E20FFF711FD1E20BDE88C40FFF700BD0F
:100D40001C10024090F83D1001291CBF0120704783
:100D5000022180F83D100068C168B0F1804F41F079
:100D60000101C16008D00A49884205D0094988427A
:100D700002D08549884204D1724600F084FB964631
:100D800003D0724600F06CFC96460020704700BF0E
:100D900000040040002C014010B500F0F5FB52D0DB
:100DA00084F83D0001204FF6777384F83C002068FA
:100DB00082689A4382600A68C2B1102A16D0202A3B
:100DC00014D0302A12D0402A17D0502A1ED0602AC0
:100DD00025D0B2F5005F2ED0B2F5805F30D0702AFA
:100DE00032D100F075FB41F0770128E0816821F0F5
:100DF0007001114341F0070121E000F00EFC206872
:100E0000816841F0470121F0300118E000F005FC55
:100E10002068816841F0570121F020010FE04B6804
:100E2000CA68194600F0C9FC2068816841F0670172
:100E300021F0100103E000F04BFB41F480418160A0
:100E4000002000F0C2FB10BD0120FAE7704710B58A
:100E5000044600680169890712D5C16889070FD562
:100E60006FF002010161012121778069800702D0C2
:100E700000F09FFB01E000F05BFB00202077206882
:100E80000169490713D5C168490710D56FF00401FE
:100E9000016102212177806910F4407F02D000F0C7
:100EA00088FB01E000F044FB002020772068016906
:100EB000090712D5C16809070FD56FF00801016154
:100EC00004212177C069800702D000F072FB01E0A5
:100ED00000F02EFB0020207720680169C90613D599
:100EE000C168C90610D56FF0100101610821217792
:100EF000C06910F4407F02D000F05BFB01E000F01D
:100F000017FB0020207720680169C90709D0C16854
:100F1000C90706D06FF001010161204600F02CF8EE
:100F200020680169090609D5C168090606D56FF070
:100F3000800101612046FFF7ADFE20680169490686
:100F400009D5C168490606D56FF040010161204608
:100F500000F01CF820680169890602D5C16889067D
:100F600000D410BD6FF0200101612046BDE81040A3
:100F7000FFF791BE704770470068F649884208BF86
:100F800000F088BD704700BF00080040704790B176
:100F900010B5044690F8410008B900F05BFB00F082
:100FA000B7FA2068016921F490410161416921F09B
:100FB0002A0100F024BB01207047000070B586B004
:100FC000184C00680026049604F54051884227D149
:100FD000B648016841F480410160016801F4804134
:100FE00001910199016841F004010160006800F07D
:100FF0000400019003200590022003904FF400703C
:101000000290019802AD20462946FFF7E5F84FF41B
:1010100080602946CDE9036602902046FFF7DCF8A0
:1010200006B070BD00080140FEE70268516949053D
:101030004FF000010FD56FF48063536120220163EC
:1010400080F83D2080F83E1080F83C10016C41F0A3
:1010500004010164012108467047F8B515460E46A3
:1010600004464F1C20684069400744BF0020F8BD7B
:101070002046FFF7DAFF70B9002FF3D0FFF78EF9A3
:10108000401BB04201D8002EECD1206840694007D7
:10109000E8D400F0A6FA0120F8BD2DE9F047DDF80C
:1010A00020909846164604468FB201F47F0503F15E
:1010B000010A1820B5F5803F08BF142000F07CFA23
:1010C00018D1BAF1000FF4D0FFF768F9A0EB0900CE
:1010D000404502D8B8F1000FEBD11820B5F5803F9C
:1010E00008BF142000F068FAE3D100F07AFA01207A
:1010F000BDE8F0870020BDE8F0872DE9F041984673
:10110000164604468FB2551C206841693940B942E1
:1011100013D04169490513D4002DF5D0FFF73EF9EE
:10112000A0EB0800B04201D8002EEDD12068406944
:101130003840B842E8D0202008E00020BDE8F08127
:1011400000F0AFFA6FF480614161042000F0FAF919
:10115000084320640120BDE8F081F8B515460E462D
:1011600004464F1C20684069000644BF0020F8BDBB
:101170002046FFF75AFF70B9002FF3D0FFF70EF9A2
:10118000401BB04201D8002EECD120684069000617
:10119000E8D400F026FA0120F8BD0000B0B5164CE6
:1011A000164901220023204600F048FC144A154D40
:1011B00020460021A847144A20460121A847134A87
:1011C00020460221A847124A20460321A847114A77
:1011D00020460421A847104A20460521A8470F4A67
:1011E00020460621A847204600F042FC5848BDE8AA
:1011F000B040FFF7A7BD00BF34000020FD1A000873
:101200008101000889180008910100088D0100087B
:101210009D0100086D0100087901000875010008B2
:10122000F0B585B02148224C01224FF4005501262B
:10123000016841F010010160016801F010010191A5
:101240000199016841F020010160016801F020016D
:1012500001910199016841F004010160016801F008
:10126000040101910199016841F0080101604FF406
:101270000051006800F00800019001982046FFF737
:1012800088F80227CDE901562046CDE9036701AD74
:101290002946FEF7A1FF002029460397CDE901600A
:1012A000A4F50060FEF798FF05B0F0BD18100240ED
:1012B0000010014010B50B480B4B0C4C00214FF4B3
:1012C0008042C0E90043C0E90211C0E90421C0E93D
:1012D00006110162FFF766F818B1BDE81040FEF78D
:1012E00065BF10BD64000020801A06000054004055
:1012F00010B586B016488021164C472341F287323C
:1013000081610021C0E90043C0E902120161059139
:10131000CDE90311CDE90011FFF7E8FC08B1FEF7B4
:1013200045FF4FF480500290FE4802A9FFF734FDBC
:1013300008B1FEF73BFF00206946CDE90000F948FF
:10134000FFF7AAFC08B1FEF731FF06B010BD00BFE1
:10135000B80000200008004010B50B480B4C0021DD
:101360000C224FF4E133C0E90043C0E90211C0E9A7
:101370000412C0E90611FFF70AFE18B1BDE81040DB
:10138000FEF714BF10BD00BF00010020003801406F
:10139000FEE7FEE710B50749074A084B044600F090
:1013A000B9FC204600F0FAFD20460021BDE81040BF
:1013B00000F000BEC023000851200008111E0008E4
:1013C000A078CAB2C2F3801300F00F00B3EBD21FB3
:1013D000704701463046009500F07ABC2046294609
:1013E00000F020BE204600F077BE4569282100228B
:1013F000002304462847306820F48030306030688D
:1014000020F48020704700930646234600F0D8BDA4
:10141000204600F001BE0D46044600F031BF2068B2
:101420002921027920462847306A20F001003062E5
:10143000306A20F00400704700F01F0101224009CB
:1014400002FA01F17047012084F8460084F83E005A
:1014500084F83F0084F8400084F8410084F842009A
:1014600084F8430084F8440084F8450084F83D0083
:10147000002010BD202084F83D00002084F83C00AE
:1014800084F83E007047816801F007010629704723
:1014900020461821324600F063BF012084F83C004A
:1014A00020680168C90770472046324600F058BFDF
:1014B00094F83C0001287047204600F0C1BE7068D7
:1014C00000F00C000828704794F83D002028704771
:1014D000D1E90123C9681A4342EA0121826822F452
:1014E0007F421143816081687047002084F83C008E
:1014F00020467047127C5143C900FEF71ABE94F88B
:1015000024002A463346FF287047204600F074BE68
:10151000242084F841002068C16821F40051C16092
:10152000204600F05DB9016841F4807101607047A8
:101530004DF808ED2046FFF71DFD20465DF808EB4D
:10154000FFF719BD00212022216384F83D2084F893
:101550003E1084F83C10216C7047608D0138608526
:101560007047204600F06DBD606A2168024612F89F
:10157000013B0B61638D013B6385626270470168CB
:1015800041F001010160704790F83C2004460220C0
:10159000012A7047044690F83D0000287047044631
:1015A000A1F1140005287047086840F001000860A8
:1015B00070472046FFF74ABC216808583840C01BD6
:1015C000B0FA80F04009B0427047002184F83C1026
:1015D000012184F83D1070471E46154601EB80013D
:1015E000704700202021206384F83D1084F83E00DD
:1015F00084F83C00206C40F020002064704741617A
:10160000C16841F40051C16000202021606484F869
:10161000411084F84210606310BD4B68CA681946D7
:1016200000F0BAB8242084F83D002068016821F059
:1016300001010160704784F83D10102184F83E10CC
:101640000021216470470220211D84F83D0020689C
:1016500000F06AB8002084F840002046FFF7AEBCD6
:10166000016841F0010101607047B0FBF3F0013007
:101670006FF31F3000287047086120462946FFF7A6
:101680003CBD2068416901918069019001987047D3
:10169000002084F83C007047D4F810C02046142184
:1016A0007047016841F400710160704770477047EE
:1016B000FEF7EEBFB0B590B000241421CDE90B4485
:1016C000CDE9094401A8FEF734FD4FF4E0100225EE
:1016D000012108940F904FF480300D950A910E90DF
:1016E000CDE9061006A8FFF743F918B1EFF3108013
:1016F00072B6FEE74FF4806005940221CDE9034005
:101700000F20CDE9010501A8FFF752F818B1EFF35A
:10171000108072B6FEE710B0B0BD70470148FFF709
:1017200096BB00BFB800002070B5184A036890420D
:1017300018BFB0F1804F22D14C6823F070032343CF
:10174000904208D0B0F1804F05D0114CA04202D099
:10175000104CA04203D1CC6823F4407323434E695C
:1017600023F080030C688D68334390420360C562A8
:10177000846201D1096911630121416170BD044C8A
:10178000A042D9D0034CA042D6D0DBE7002C0140C8
:10179000000800400004004010B5036A046A24F009
:1017A00001040462846924F0F00444EA02128261B4
:1017B00023F00A021143016210BD10B5036A046AE6
:1017C00024F010040462846924F4704444EA023270
:1017D000826123F0A00242EA0111016210BD000003
:1017E000B0B50446006804F108030ECB056925F482
:1017F000405519432A4341F20C650261C26863698E
:10180000AA4319431143C1604169A26921F440719F
:10181000114341611149884202D0FFF767F801E0A6
:10182000FFF76EF819214843D4E900126FF0630402
:101830009200B0FBF2F06422B0FBF2F303FB040071
:10184000322404EB0010B0FBF2F000F0F00200F0E4
:101850000F0002EB031210448860B0BD0038014055
:10186000FEE7000010B5074C00F00F03B0F1FF3F9A
:10187000034A2344C8BF83180801187010BD00BF75
:1018800000E400E014ED00E000EB8100C26070476E
:1018900010B504460079A1688847E278510702D064
:1018A000218801312180B0EBD21F02D102F0C701A3
:1018B0000FE0012101EBD20101F0070302F0C701A3
:1018C00041EAC301032BE17004D302F0470141EA6E
:1018D000C011E17001F00700052800F2A180DFE8E7
:1018E00000F0031B32539F5DFFF76AFD1EBF80307F
:1018F000A07010BDE268A0701AB120469047A07891
:10190000E17801F0F80100F0F0000022013101302F
:101910002280E170A07010BDC8B2C0F38012B2EB9B
:10192000D01F46D12088C9285FD3A078052262F352
:101930001F10226AA07012B120469047E17801F092
:10194000F800053078E0C8B2C0F38011B1EBD01FC9
:101950003ED1A078E16800F00F00A07011B12046E0
:101960008847A07800F0F001013000F00F00084433
:101970006169A07009B12046884700202080E07886
:1019800000F0F800033057E0C8B2C0F38012B2EBA9
:10199000D01F2BD120883D2842D226E0FFF710FD32
:1019A00037D1616A6030A070F9B12046BDE81040BF
:1019B0000847A078012262F31F102269A07012B1BB
:1019C00020469047E1780020208001F0F8001EE0DA
:1019D00020883D2809D3A07800F00F00022822D0EB
:1019E000012826D13030A1691FE010BDA078012167
:1019F00061F31F102169A07009B120468847208833
:101A00003B2816D800202080E07800F0F800023053
:101A100012E022691030A07012B120469047E178A0
:101A200001F0F80008E0E1694030A07009B12046FB
:101A30008847E07800F0F800E07010BDF8B50E4679
:101A40002C211C4615460746FEF773FB8020BE601E
:101A5000B8702046B04740213C7101EA851141EA47
:101A6000C010F97801F03F010844F870F8BD00009B
:101A70000E490A683AB1824202F1280104BF4FF0D0
:101A8000FF307047F5E709490A6808608262002064
:101A9000704700BF10B5054804682CB12046FFF719
:101AA000F7FE04F12800F7E710BD00BF600000203A
:101AB00082B0FEF7F7FDFFF7FDFDFFF7B1FBFFF783
:101AC000F9FBFFF715FCFFF747FCFFF767FB0A4C34
:101AD0002046FFF75FFC0A25204600F092F82046DA
:101AE0000A210A220A23009500F012F8204600F08D
:101AF000B1F80028F3D1EFE74C01002008B1002035
:101B0000704702480121FEF73FBC00BF00080140BA
:101B10002DE9F843089C0746984615460E46A0183E
:101B200080B20090581883B2384600F07BF870B14C
:101B30004FF0000920040AD0AAB238463146434685
:101B4000CDF8009000F005F8013C0135F2E7BDE862
:101B5000F883FEB5044690F88C00ADF80820ADF887
:101B60000A10ADF8063000284AD0002B48D008985B
:101B700015460E46012B08D003281FD0022804D199
:101B8000F01A0130ADF80A0001E0C0071AD1B4F82C
:101B90004C00A84234D8B4F84E00A84230D9B4F86A
:101BA0004A30B4F848200DF10A000DF1060100F0AA
:101BB00000F928B3BDF80A60002018E0E81A0130E7
:101BC000ADF80800B4F84800B04219D8B4F84A009B
:101BD000B04215D9B4F84E30B4F84C2002A80DF13B
:101BE000060100F0E6F858B1BDF808500120216B5D
:101BF000BDF806302A468F68009020463146B84727
:101C0000FEBD10B5044690F8930028B1226894F800
:101C10003810606BFFF76EFC20460021BDE81040D5
:101C200000F03AB870B51C460D460646B0F84E10A6
:101C3000B0F84C00049B00F0FDF848B1B6F84A102B
:101C4000B6F848002A462346BDE8704000F0F2B8D6
:101C5000002070BDB0B5044600F042F994F8391088
:101C600094F838000144CDB221684A7C95420ED2E6
:101C700094F893202AB1097C4843C100606BFEF7B9
:101C800058FA2046294600F007F80120B0BD20464A
:101C900000F08AF90020B0BD10B5044680F8391074
:101CA000006B016820468847206B41682046BDE8EC
:101CB000104008470149C165704700BF0D1E00086C
:101CC0000249C0E91411016B496808470000FFFF91
:101CD000B0B50025044680F838204163C36280F81F
:101CE000915080F86D5080F83950856540F20110B0
:101CF00084F88D50A4F8920004980168206320466F
:101D000088472046FFF7DCFF2046FFF7D3FF84F823
:101D10007050B0BD7CB514460D460749074AFFF721
:101D200072FB0DF1070000F0D5F89DF80720044B79
:101D3000FFF74FFB7CBD00BF4D2200085521000876
:101D40005D1E00081CB50446B0F85230B0F85420AF
:101D5000B0F85010B0F8560000902046FFF762FF30
:101D600018B30120B4F8481084F88C00B4F850007F
:101D7000814238BFA4F84800B4F85200B4F84A10C1
:101D8000814288BFA4F84A00B4F85400B4F84C105B
:101D9000814238BFA4F84C00B4F85600B4F84E1095
:101DA000814288BFA4F84E001CBD002084F88C003E
:101DB0001CBDF0B504880D882544AEB2AE4203D0F8
:101DC0009C42164601D25D1E264600249E420CD23D
:101DD000AFB2974209D9964238BF164606809F4255
:101DE00088BF1D46A81B012408802046F0BD7CB595
:101DF000C58FC46A069E521B009692B2A0477CBD56
:101E00001CB5049C0094FFF7F2FF1CBD0020704736
:101E1000A1F14C0002280BD3282909D029291CBF85
:101E20000020704780B51046FEF7C4F9BDE8804039
:101E30000120704710B504468A4208D2A34284BFED
:101E4000012010BD00209A4288BF012010BD002053
:101E5000A34202D99A4288BF012010BDF0B590F884
:101E6000926002F007074FF0010C22F007020CFA13
:101E700007F4751E18BF2546022E28BF00240668E9
:101E8000D0F834E0367C724392B272441144059A21
:101E9000BAB10A7822436A400A707A1C12F0070726
:101EA00002D06D00640008E090F89220012A18BF6B
:101EB000654698BF6446428F1144013B1A04E8D13D
:101EC00007E00878013B2043684001F8010B180443
:101ED000F7D1F0BD0821017000487047E0010020F3
:101EE0002DE9FC47044690F8388090F83960006886
:101EF000002501274FF6F87A90F8119002E020684B
:101F000001370835037C616BF2B205FB03F000EA90
:101F10000A00084400210090204600F030F8013605
:101F2000F0B2484538BF4745E9D3BDE8FC8710B556
:101F300090F83810CA00828790F83920D300C38700
:101F4000A0F8403003685C6944641C7C5B7CE4005E
:101F5000448754189C4288BF991A1144C900A0F8BC
:101F6000421010BDFFF7E3BF0021A0F84810B0F801
:101F70004410A0F84A10016CC164FFF7E3BE1CB521
:101F80008DF80510049984688DF806208DF80430CA
:101F90006B46012200910F21A0471CBDD0F808C05C
:101FA0000A21002200236047D0F808C01021002237
:101FB00000236047D0F808C00A460B210023604781
:101FC000F8B51C4615460E46074600F00BF8069875
:101FD000C7E90265C7E904403846BDE8F84000F0AB
:101FE00015B80000084AFF23002180F828304FF47C
:101FF0007F4380F8261001608161A0F82330C0E99A
:102000000222C0E90422704755230008D0F808C016
:102010000921002200236047D0F810C019210022B6
:1020200000236047E0B58DF807100DF1070201218C
:1020300000F001F88CBDD0F810C013460A461721F5
:102040006047D0F810C0182100220023604700002C
:10205000BCB5044614390020052920D8DFE801F07A
:102060001E1F1F030F130E48110617D0017813F817
:10207000015B013A4418013165700170F4E70848CA
:10208000002101700AE0064A4FF47A7094F8241097
:102090000090044812F8013BFEF71CFA0120BCBD79
:1020A0001000002064000020D0F80CC0192100228C
:1020B00000236047D0F80CC00A4616210023604771
:1020C000D0F80CC00A46152100236047D0F80CC098
:1020D00013460A4617216047F8B50E4604460DF12F
:1020E0000305374617F8011BA1F11500022811D38B
:1020F000A1F11800022816D317291BD0FE2918BFFA
:10210000F8BD7278204629218DF8032000F024F9CB
:102110000236E6E77278E768204600238DF8032050
:10212000B8470236DDE7E668204600220023B047C4
:102130003E46D6E7707801212A468DF803002046F6
:10214000FFF7C4FF0236CCE7D0F80CC018210022FC
:1021500000236047F8B5FFF722FA84BF0020F8BDDE
:102160000FF20801FFF738FADFE800F0030F202331
:10217000363AFFF7C4F904BF782084F82400FFF74B
:102180008BFA01B0BDE8F04060471A4E3078012864
:1021900001D1FFF73DF9FFF7E4F920460021FFF7F1
:1021A00041FFFFF71BF901203070F8BDFFF716F96A
:1021B0001EE0104F3878012806D1FFF729F903E017
:1021C000FFF766F91836183DE9B21929F8D2FFF77A
:1021D0006BF9002038700BE006480021017007E021
:1021E000044D2878012801D1FFF712F9002028704A
:1021F0000120F8BDE0050020B0B5FFF7F6F8E5686E
:102200002046142100220023A8470C4D20464B21D4
:102210000122A847FFF703F920464B210022A847D7
:10222000FFF7FDF820464B210122A847206829210D
:102230002B4642792046BDE8B04018475923000894
:102240000160897C80F8221070470000B0B5FFF76C
:10225000E2F870B9092D09D00A2D1CBF0020B0BDCD
:10226000FFF753F90549FFF7BDF802E00249FFF710
:1022700023F90120B0BD00BF1C240008DA230008A8
:102280002DE9F04104460B390020042957D81546A2
:10229000DFE801F00355070F1B00002D43D02B4949
:1022A00042E0002D43D02749FFF79CF82068C07C0E
:1022B00042E02046FFF748FF20468121FFF700FF5C
:1022C00020462946FFF7F6FE29E020461E46FFF786
:1022D0003BFF96F8058094F8227020464021FFF7D6
:1022E000EFFE07EBC807F8B2000900F11001204625
:1022F000FFF7E6FE07F00F012046FFF7DBFEB0799F
:1023000040F0B0012046FFF7D5FE30793268C000BA
:10231000C1B22046FFF7DAFE013D2806F5D120467E
:10232000FFF7C2FE0AE00A49FFF75CF806E006493B
:10233000FFF758F82068807C84F822000120BDE86F
:10234000F08100BFD3230008CC2300081424000828
:102350000F24000800207047D0F814C00023604705
:10236000F8B514460D460646FFF76BFE3046402191
:10237000FFF758FE3769304617212A462346B847EB
:102380003046BDE8F840FFF747BE02E008C8121F1C
:1023900008C1002AFAD170477047002001E001C14E
:1023A000121F002AFBD1704700000000000000004F
:1023B00001020304060708090000000001020304EB
:1023C000651F0008691F0008011E00081815A115E7
:1023D000C819FF1815A015C019FF1815AE15D51688
:1023E0008015A8163F15D316001540158D16141527
:1023F00020160015A115C815DA1612158116CF156D
:10240000D916F115DB1640152E15A415A619FF18BF
:1024100015AF19FF1815AE19FF0000000001140ACE
:102420006464323200127A0000042896100800001A
:102430008000400058240008000000201000000028
:102440008A2300086824000810000020D809000032
:102450009A230008000000000100000010000000A6
:082460000024F400000000005C
:04000005080000ED02
:00000001FF
